{
	"_format": "hh-sol-artifact-1",
	"contractName": "SigmaNFT",
	"sourceName": "contracts/SigmaNFT.sol",
	"abi": [
		{
			"inputs": [],
			"stateMutability": "nonpayable",
			"type": "constructor"
		},
		{
			"anonymous": false,
			"inputs": [
				{
					"indexed": true,
					"internalType": "address",
					"name": "owner",
					"type": "address"
				},
				{
					"indexed": true,
					"internalType": "address",
					"name": "approved",
					"type": "address"
				},
				{
					"indexed": true,
					"internalType": "uint256",
					"name": "tokenId",
					"type": "uint256"
				}
			],
			"name": "Approval",
			"type": "event"
		},
		{
			"anonymous": false,
			"inputs": [
				{
					"indexed": true,
					"internalType": "address",
					"name": "owner",
					"type": "address"
				},
				{
					"indexed": true,
					"internalType": "address",
					"name": "operator",
					"type": "address"
				},
				{
					"indexed": false,
					"internalType": "bool",
					"name": "approved",
					"type": "bool"
				}
			],
			"name": "ApprovalForAll",
			"type": "event"
		},
		{
			"anonymous": false,
			"inputs": [
				{
					"indexed": true,
					"internalType": "address",
					"name": "from",
					"type": "address"
				},
				{
					"indexed": true,
					"internalType": "address",
					"name": "to",
					"type": "address"
				},
				{
					"indexed": true,
					"internalType": "uint256",
					"name": "tokenId",
					"type": "uint256"
				}
			],
			"name": "Transfer",
			"type": "event"
		},
		{
			"inputs": [
				{
					"internalType": "address",
					"name": "to",
					"type": "address"
				},
				{
					"internalType": "uint256",
					"name": "tokenId",
					"type": "uint256"
				}
			],
			"name": "approve",
			"outputs": [],
			"stateMutability": "nonpayable",
			"type": "function"
		},
		{
			"inputs": [
				{
					"internalType": "address",
					"name": "owner",
					"type": "address"
				}
			],
			"name": "balanceOf",
			"outputs": [
				{
					"internalType": "uint256",
					"name": "",
					"type": "uint256"
				}
			],
			"stateMutability": "view",
			"type": "function"
		},
		{
			"inputs": [
				{
					"internalType": "address",
					"name": "_ownerAddress",
					"type": "address"
				},
				{
					"internalType": "uint256",
					"name": "_tokenId",
					"type": "uint256"
				}
			],
			"name": "burn",
			"outputs": [
				{
					"internalType": "uint256",
					"name": "",
					"type": "uint256"
				}
			],
			"stateMutability": "nonpayable",
			"type": "function"
		},
		{
			"inputs": [
				{
					"internalType": "uint256",
					"name": "tokenId",
					"type": "uint256"
				}
			],
			"name": "getApproved",
			"outputs": [
				{
					"internalType": "address",
					"name": "",
					"type": "address"
				}
			],
			"stateMutability": "view",
			"type": "function"
		},
		{
			"inputs": [
				{
					"internalType": "address",
					"name": "owner",
					"type": "address"
				},
				{
					"internalType": "address",
					"name": "operator",
					"type": "address"
				}
			],
			"name": "isApprovedForAll",
			"outputs": [
				{
					"internalType": "bool",
					"name": "",
					"type": "bool"
				}
			],
			"stateMutability": "view",
			"type": "function"
		},
		{
			"inputs": [
				{
					"internalType": "string",
					"name": "_tokenURI",
					"type": "string"
				}
			],
			"name": "mint",
			"outputs": [
				{
					"internalType": "uint256",
					"name": "",
					"type": "uint256"
				}
			],
			"stateMutability": "nonpayable",
			"type": "function"
		},
		{
			"inputs": [],
			"name": "name",
			"outputs": [
				{
					"internalType": "string",
					"name": "",
					"type": "string"
				}
			],
			"stateMutability": "view",
			"type": "function"
		},
		{
			"inputs": [
				{
					"internalType": "uint256",
					"name": "tokenId",
					"type": "uint256"
				}
			],
			"name": "ownerOf",
			"outputs": [
				{
					"internalType": "address",
					"name": "",
					"type": "address"
				}
			],
			"stateMutability": "view",
			"type": "function"
		},
		{
			"inputs": [
				{
					"internalType": "address",
					"name": "from",
					"type": "address"
				},
				{
					"internalType": "address",
					"name": "to",
					"type": "address"
				},
				{
					"internalType": "uint256",
					"name": "tokenId",
					"type": "uint256"
				}
			],
			"name": "safeTransferFrom",
			"outputs": [],
			"stateMutability": "nonpayable",
			"type": "function"
		},
		{
			"inputs": [
				{
					"internalType": "address",
					"name": "from",
					"type": "address"
				},
				{
					"internalType": "address",
					"name": "to",
					"type": "address"
				},
				{
					"internalType": "uint256",
					"name": "tokenId",
					"type": "uint256"
				},
				{
					"internalType": "bytes",
					"name": "_data",
					"type": "bytes"
				}
			],
			"name": "safeTransferFrom",
			"outputs": [],
			"stateMutability": "nonpayable",
			"type": "function"
		},
		{
			"inputs": [
				{
					"internalType": "address",
					"name": "operator",
					"type": "address"
				},
				{
					"internalType": "bool",
					"name": "approved",
					"type": "bool"
				}
			],
			"name": "setApprovalForAll",
			"outputs": [],
			"stateMutability": "nonpayable",
			"type": "function"
		},
		{
			"inputs": [
				{
					"internalType": "bytes4",
					"name": "interfaceId",
					"type": "bytes4"
				}
			],
			"name": "supportsInterface",
			"outputs": [
				{
					"internalType": "bool",
					"name": "",
					"type": "bool"
				}
			],
			"stateMutability": "view",
			"type": "function"
		},
		{
			"inputs": [],
			"name": "symbol",
			"outputs": [
				{
					"internalType": "string",
					"name": "",
					"type": "string"
				}
			],
			"stateMutability": "view",
			"type": "function"
		},
		{
			"inputs": [],
			"name": "tokenCount",
			"outputs": [
				{
					"internalType": "uint256",
					"name": "",
					"type": "uint256"
				}
			],
			"stateMutability": "view",
			"type": "function"
		},
		{
			"inputs": [
				{
					"internalType": "uint256",
					"name": "tokenId",
					"type": "uint256"
				}
			],
			"name": "tokenURI",
			"outputs": [
				{
					"internalType": "string",
					"name": "",
					"type": "string"
				}
			],
			"stateMutability": "view",
			"type": "function"
		},
		{
			"inputs": [
				{
					"internalType": "address",
					"name": "from",
					"type": "address"
				},
				{
					"internalType": "address",
					"name": "to",
					"type": "address"
				},
				{
					"internalType": "uint256",
					"name": "tokenId",
					"type": "uint256"
				}
			],
			"name": "transferFrom",
			"outputs": [],
			"stateMutability": "nonpayable",
			"type": "function"
		},
		{
			"inputs": [
				{
					"internalType": "uint256",
					"name": "_tokenId",
					"type": "uint256"
				},
				{
					"internalType": "string",
					"name": "_tokenURI",
					"type": "string"
				}
			],
			"name": "update",
			"outputs": [
				{
					"internalType": "uint256",
					"name": "",
					"type": "uint256"
				}
			],
			"stateMutability": "nonpayable",
			"type": "function"
		}
	],
	"bytecode": "0x60806040523480156200001157600080fd5b506040518060400160405280600981526020017f5369676d61204e465400000000000000000000000000000000000000000000008152506040518060400160405280600881526020017f5369676d614e4654000000000000000000000000000000000000000000000000815250816000908051906020019062000096929190620000b8565b508060019080519060200190620000af929190620000b8565b505050620001cd565b828054620000c69062000168565b90600052602060002090601f016020900481019282620000ea576000855562000136565b82601f106200010557805160ff191683800117855562000136565b8280016001018555821562000136579182015b828111156200013557825182559160200191906001019062000118565b5b50905062000145919062000149565b5090565b5b80821115620001645760008160009055506001016200014a565b5090565b600060028204905060018216806200018157607f821691505b602082108114156200019857620001976200019e565b5b50919050565b7f4e487b7100000000000000000000000000000000000000000000000000000000600052602260045260246000fd5b612fd180620001dd6000396000f3fe608060405234801561001057600080fd5b506004361061010b5760003560e01c806395d89b41116100a2578063b88d4fde11610071578063b88d4fde146102ca578063c87b56dd146102e6578063d85d3d2714610316578063e985e9c514610346578063f745630f146103765761010b565b806395d89b41146102425780639dc29fac146102605780639f181b5e14610290578063a22cb465146102ae5761010b565b806323b872dd116100de57806323b872dd146101aa57806342842e0e146101c65780636352211e146101e257806370a08231146102125761010b565b806301ffc9a71461011057806306fdde0314610140578063081812fc1461015e578063095ea7b31461018e575b600080fd5b61012a60048036038101906101259190611f2d565b6103a6565b60405161013791906123eb565b60405180910390f35b610148610488565b6040516101559190612406565b60405180910390f35b61017860048036038101906101739190611fc0565b61051a565b6040516101859190612384565b60405180910390f35b6101a860048036038101906101a39190611ef1565b61059f565b005b6101c460048036038101906101bf9190611deb565b6106b7565b005b6101e060048036038101906101db9190611deb565b610717565b005b6101fc60048036038101906101f79190611fc0565b610737565b6040516102099190612384565b60405180910390f35b61022c60048036038101906102279190611d86565b6107e9565b6040516102399190612648565b60405180910390f35b61024a6108a1565b6040516102579190612406565b60405180910390f35b61027a60048036038101906102759190611ef1565b610933565b6040516102879190612648565b60405180910390f35b6102986109a8565b6040516102a59190612648565b60405180910390f35b6102c860048036038101906102c39190611eb5565b6109ae565b005b6102e460048036038101906102df9190611e3a565b6109c4565b005b61030060048036038101906102fb9190611fc0565b610a26565b60405161030d9190612406565b60405180910390f35b610330600480360381019061032b9190611f7f565b610b78565b60405161033d9190612648565b60405180910390f35b610360600480360381019061035b9190611daf565b610bb4565b60405161036d91906123eb565b60405180910390f35b610390600480360381019061038b9190611fe9565b610c48565b60405161039d9190612648565b60405180910390f35b60007f80ac58cd000000000000000000000000000000000000000000000000000000007bffffffffffffffffffffffffffffffffffffffffffffffffffffffff1916827bffffffffffffffffffffffffffffffffffffffffffffffffffffffff1916148061047157507f5b5e139f000000000000000000000000000000000000000000000000000000007bffffffffffffffffffffffffffffffffffffffffffffffffffffffff1916827bffffffffffffffffffffffffffffffffffffffffffffffffffffffff1916145b80610481575061048082610c5f565b5b9050919050565b606060008054610497906128c8565b80601f01602080910402602001604051908101604052809291908181526020018280546104c3906128c8565b80156105105780601f106104e557610100808354040283529160200191610510565b820191906000526020600020905b8154815290600101906020018083116104f357829003601f168201915b5050505050905090565b600061052582610cc9565b610564576040517f08c379a000000000000000000000000000000000000000000000000000000000815260040161055b906125c8565b60405180910390fd5b6004600083815260200190815260200160002060009054906101000a900473ffffffffffffffffffffffffffffffffffffffff169050919050565b60006105aa82610737565b90508073ffffffffffffffffffffffffffffffffffffffff168373ffffffffffffffffffffffffffffffffffffffff16141561061b576040517f08c379a000000000000000000000000000000000000000000000000000000000815260040161061290612608565b60405180910390fd5b8073ffffffffffffffffffffffffffffffffffffffff1661063a610d35565b73ffffffffffffffffffffffffffffffffffffffff161480610669575061066881610663610d35565b610bb4565b5b6106a8576040517f08c379a000000000000000000000000000000000000000000000000000000000815260040161069f906124e8565b60405180910390fd5b6106b28383610d3d565b505050565b6106c86106c2610d35565b82610df6565b610707576040517f08c379a00000000000000000000000000000000000000000000000000000000081526004016106fe90612628565b60405180910390fd5b610712838383610ed4565b505050565b610732838383604051806020016040528060008152506109c4565b505050565b6000806002600084815260200190815260200160002060009054906101000a900473ffffffffffffffffffffffffffffffffffffffff169050600073ffffffffffffffffffffffffffffffffffffffff168173ffffffffffffffffffffffffffffffffffffffff1614156107e0576040517f08c379a00000000000000000000000000000000000000000000000000000000081526004016107d790612528565b60405180910390fd5b80915050919050565b60008073ffffffffffffffffffffffffffffffffffffffff168273ffffffffffffffffffffffffffffffffffffffff16141561085a576040517f08c379a000000000000000000000000000000000000000000000000000000000815260040161085190612508565b60405180910390fd5b600360008373ffffffffffffffffffffffffffffffffffffffff1673ffffffffffffffffffffffffffffffffffffffff168152602001908152602001600020549050919050565b6060600180546108b0906128c8565b80601f01602080910402602001604051908101604052809291908181526020018280546108dc906128c8565b80156109295780601f106108fe57610100808354040283529160200191610929565b820191906000526020600020905b81548152906001019060200180831161090c57829003601f168201915b5050505050905090565b600061093f8383610df6565b61097e576040517f08c379a0000000000000000000000000000000000000000000000000000000008152600401610975906125a8565b60405180910390fd5b60076000815461098d9061289e565b9190508190555061099d8261113b565b600754905092915050565b60075481565b6109c06109b9610d35565b838361118e565b5050565b6109d56109cf610d35565b83610df6565b610a14576040517f08c379a0000000000000000000000000000000000000000000000000000000008152600401610a0b90612628565b60405180910390fd5b610a20848484846112fb565b50505050565b6060610a3182610cc9565b610a70576040517f08c379a0000000000000000000000000000000000000000000000000000000008152600401610a6790612588565b60405180910390fd5b6000600660008481526020019081526020016000208054610a90906128c8565b80601f0160208091040260200160405190810160405280929190818152602001828054610abc906128c8565b8015610b095780601f10610ade57610100808354040283529160200191610b09565b820191906000526020600020905b815481529060010190602001808311610aec57829003601f168201915b505050505090506000610b1a611357565b9050600081511415610b30578192505050610b73565b600082511115610b65578082604051602001610b4d929190612360565b60405160208183030381529060405292505050610b73565b610b6e8461136e565b925050505b919050565b600060076000815480929190610b8d9061292b565b9190505550610b9e33600754611415565b610baa60075483611433565b6007549050919050565b6000600560008473ffffffffffffffffffffffffffffffffffffffff1673ffffffffffffffffffffffffffffffffffffffff16815260200190815260200160002060008373ffffffffffffffffffffffffffffffffffffffff1673ffffffffffffffffffffffffffffffffffffffff16815260200190815260200160002060009054906101000a900460ff16905092915050565b6000610c548383611433565b600754905092915050565b60007f01ffc9a7000000000000000000000000000000000000000000000000000000007bffffffffffffffffffffffffffffffffffffffffffffffffffffffff1916827bffffffffffffffffffffffffffffffffffffffffffffffffffffffff1916149050919050565b60008073ffffffffffffffffffffffffffffffffffffffff166002600084815260200190815260200160002060009054906101000a900473ffffffffffffffffffffffffffffffffffffffff1673ffffffffffffffffffffffffffffffffffffffff1614159050919050565b600033905090565b816004600083815260200190815260200160002060006101000a81548173ffffffffffffffffffffffffffffffffffffffff021916908373ffffffffffffffffffffffffffffffffffffffff160217905550808273ffffffffffffffffffffffffffffffffffffffff16610db083610737565b73ffffffffffffffffffffffffffffffffffffffff167f8c5be1e5ebec7d5bd14f71427d1e84f3dd0314c0f7b2291e5b200ac8c7c3b92560405160405180910390a45050565b6000610e0182610cc9565b610e40576040517f08c379a0000000000000000000000000000000000000000000000000000000008152600401610e37906124c8565b60405180910390fd5b6000610e4b83610737565b90508073ffffffffffffffffffffffffffffffffffffffff168473ffffffffffffffffffffffffffffffffffffffff161480610eba57508373ffffffffffffffffffffffffffffffffffffffff16610ea28461051a565b73ffffffffffffffffffffffffffffffffffffffff16145b80610ecb5750610eca8185610bb4565b5b91505092915050565b8273ffffffffffffffffffffffffffffffffffffffff16610ef482610737565b73ffffffffffffffffffffffffffffffffffffffff1614610f4a576040517f08c379a0000000000000000000000000000000000000000000000000000000008152600401610f4190612448565b60405180910390fd5b600073ffffffffffffffffffffffffffffffffffffffff168273ffffffffffffffffffffffffffffffffffffffff161415610fba576040517f08c379a0000000000000000000000000000000000000000000000000000000008152600401610fb190612488565b60405180910390fd5b610fc58383836114a7565b610fd0600082610d3d565b6001600360008573ffffffffffffffffffffffffffffffffffffffff1673ffffffffffffffffffffffffffffffffffffffff168152602001908152602001600020600082825461102091906127b4565b925050819055506001600360008473ffffffffffffffffffffffffffffffffffffffff1673ffffffffffffffffffffffffffffffffffffffff1681526020019081526020016000206000828254611077919061272d565b92505081905550816002600083815260200190815260200160002060006101000a81548173ffffffffffffffffffffffffffffffffffffffff021916908373ffffffffffffffffffffffffffffffffffffffff160217905550808273ffffffffffffffffffffffffffffffffffffffff168473ffffffffffffffffffffffffffffffffffffffff167fddf252ad1be2c89b69c2b068fc378daa952ba7f163c4a11628f55a4df523b3ef60405160405180910390a46111368383836114ac565b505050565b611144816114b1565b6000600660008381526020019081526020016000208054611164906128c8565b90501461118b5760066000828152602001908152602001600020600061118a9190611b6a565b5b50565b8173ffffffffffffffffffffffffffffffffffffffff168373ffffffffffffffffffffffffffffffffffffffff1614156111fd576040517f08c379a00000000000000000000000000000000000000000000000000000000081526004016111f4906124a8565b60405180910390fd5b80600560008573ffffffffffffffffffffffffffffffffffffffff1673ffffffffffffffffffffffffffffffffffffffff16815260200190815260200160002060008473ffffffffffffffffffffffffffffffffffffffff1673ffffffffffffffffffffffffffffffffffffffff16815260200190815260200160002060006101000a81548160ff0219169083151502179055508173ffffffffffffffffffffffffffffffffffffffff168373ffffffffffffffffffffffffffffffffffffffff167f17307eab39ab6107e8899845ad3d59bd9653f200f220920489ca2b5937696c31836040516112ee91906123eb565b60405180910390a3505050565b611306848484610ed4565b611312848484846115ce565b611351576040517f08c379a000000000000000000000000000000000000000000000000000000000815260040161134890612428565b60405180910390fd5b50505050565b606060405180602001604052806000815250905090565b606061137982610cc9565b6113b8576040517f08c379a00000000000000000000000000000000000000000000000000000000081526004016113af906125e8565b60405180910390fd5b60006113c2611357565b905060008151116113e2576040518060200160405280600081525061140d565b806113ec84611765565b6040516020016113fd929190612360565b6040516020818303038152906040525b915050919050565b61142f828260405180602001604052806000815250611912565b5050565b61143c82610cc9565b61147b576040517f08c379a000000000000000000000000000000000000000000000000000000000815260040161147290612548565b60405180910390fd5b806006600084815260200190815260200160002090805190602001906114a2929190611baa565b505050565b505050565b505050565b60006114bc82610737565b90506114ca816000846114a7565b6114d5600083610d3d565b6001600360008373ffffffffffffffffffffffffffffffffffffffff1673ffffffffffffffffffffffffffffffffffffffff168152602001908152602001600020600082825461152591906127b4565b925050819055506002600083815260200190815260200160002060006101000a81549073ffffffffffffffffffffffffffffffffffffffff021916905581600073ffffffffffffffffffffffffffffffffffffffff168273ffffffffffffffffffffffffffffffffffffffff167fddf252ad1be2c89b69c2b068fc378daa952ba7f163c4a11628f55a4df523b3ef60405160405180910390a46115ca816000846114ac565b5050565b60006115ef8473ffffffffffffffffffffffffffffffffffffffff1661196d565b15611758578373ffffffffffffffffffffffffffffffffffffffff1663150b7a02611618610d35565b8786866040518563ffffffff1660e01b815260040161163a949392919061239f565b602060405180830381600087803b15801561165457600080fd5b505af192505050801561168557506040513d601f19601f820116820180604052508101906116829190611f56565b60015b611708573d80600081146116b5576040519150601f19603f3d011682016040523d82523d6000602084013e6116ba565b606091505b50600081511415611700576040517f08c379a00000000000000000000000000000000000000000000000000000000081526004016116f790612428565b60405180910390fd5b805181602001fd5b63150b7a0260e01b7bffffffffffffffffffffffffffffffffffffffffffffffffffffffff1916817bffffffffffffffffffffffffffffffffffffffffffffffffffffffff19161491505061175d565b600190505b949350505050565b606060008214156117ad576040518060400160405280600181526020017f3000000000000000000000000000000000000000000000000000000000000000815250905061190d565b600082905060005b600082146117df5780806117c89061292b565b915050600a826117d89190612783565b91506117b5565b60008167ffffffffffffffff811115611821577f4e487b7100000000000000000000000000000000000000000000000000000000600052604160045260246000fd5b6040519080825280601f01601f1916602001820160405280156118535781602001600182028036833780820191505090505b5090505b600085146119065760018261186c91906127b4565b9150600a8561187b9190612974565b6030611887919061272d565b60f81b8183815181106118c3577f4e487b7100000000000000000000000000000000000000000000000000000000600052603260045260246000fd5b60200101907effffffffffffffffffffffffffffffffffffffffffffffffffffffffffffff1916908160001a905350600a856118ff9190612783565b9450611857565b8093505050505b919050565b61191c8383611990565b61192960008484846115ce565b611968576040517f08c379a000000000000000000000000000000000000000000000000000000000815260040161195f90612428565b60405180910390fd5b505050565b6000808273ffffffffffffffffffffffffffffffffffffffff163b119050919050565b600073ffffffffffffffffffffffffffffffffffffffff168273ffffffffffffffffffffffffffffffffffffffff161415611a00576040517f08c379a00000000000000000000000000000000000000000000000000000000081526004016119f790612568565b60405180910390fd5b611a0981610cc9565b15611a49576040517f08c379a0000000000000000000000000000000000000000000000000000000008152600401611a4090612468565b60405180910390fd5b611a55600083836114a7565b6001600360008473ffffffffffffffffffffffffffffffffffffffff1673ffffffffffffffffffffffffffffffffffffffff1681526020019081526020016000206000828254611aa5919061272d565b92505081905550816002600083815260200190815260200160002060006101000a81548173ffffffffffffffffffffffffffffffffffffffff021916908373ffffffffffffffffffffffffffffffffffffffff160217905550808273ffffffffffffffffffffffffffffffffffffffff16600073ffffffffffffffffffffffffffffffffffffffff167fddf252ad1be2c89b69c2b068fc378daa952ba7f163c4a11628f55a4df523b3ef60405160405180910390a4611b66600083836114ac565b5050565b508054611b76906128c8565b6000825580601f10611b885750611ba7565b601f016020900490600052602060002090810190611ba69190611c30565b5b50565b828054611bb6906128c8565b90600052602060002090601f016020900481019282611bd85760008555611c1f565b82601f10611bf157805160ff1916838001178555611c1f565b82800160010185558215611c1f579182015b82811115611c1e578251825591602001919060010190611c03565b5b509050611c2c9190611c30565b5090565b5b80821115611c49576000816000905550600101611c31565b5090565b6000611c60611c5b84612688565b612663565b905082815260208101848484011115611c7857600080fd5b611c8384828561285c565b509392505050565b6000611c9e611c99846126b9565b612663565b905082815260208101848484011115611cb657600080fd5b611cc184828561285c565b509392505050565b600081359050611cd881612f3f565b92915050565b600081359050611ced81612f56565b92915050565b600081359050611d0281612f6d565b92915050565b600081519050611d1781612f6d565b92915050565b600082601f830112611d2e57600080fd5b8135611d3e848260208601611c4d565b91505092915050565b600082601f830112611d5857600080fd5b8135611d68848260208601611c8b565b91505092915050565b600081359050611d8081612f84565b92915050565b600060208284031215611d9857600080fd5b6000611da684828501611cc9565b91505092915050565b60008060408385031215611dc257600080fd5b6000611dd085828601611cc9565b9250506020611de185828601611cc9565b9150509250929050565b600080600060608486031215611e0057600080fd5b6000611e0e86828701611cc9565b9350506020611e1f86828701611cc9565b9250506040611e3086828701611d71565b9150509250925092565b60008060008060808587031215611e5057600080fd5b6000611e5e87828801611cc9565b9450506020611e6f87828801611cc9565b9350506040611e8087828801611d71565b925050606085013567ffffffffffffffff811115611e9d57600080fd5b611ea987828801611d1d565b91505092959194509250565b60008060408385031215611ec857600080fd5b6000611ed685828601611cc9565b9250506020611ee785828601611cde565b9150509250929050565b60008060408385031215611f0457600080fd5b6000611f1285828601611cc9565b9250506020611f2385828601611d71565b9150509250929050565b600060208284031215611f3f57600080fd5b6000611f4d84828501611cf3565b91505092915050565b600060208284031215611f6857600080fd5b6000611f7684828501611d08565b91505092915050565b600060208284031215611f9157600080fd5b600082013567ffffffffffffffff811115611fab57600080fd5b611fb784828501611d47565b91505092915050565b600060208284031215611fd257600080fd5b6000611fe084828501611d71565b91505092915050565b60008060408385031215611ffc57600080fd5b600061200a85828601611d71565b925050602083013567ffffffffffffffff81111561202757600080fd5b61203385828601611d47565b9150509250929050565b612046816127e8565b82525050565b612055816127fa565b82525050565b6000612066826126ea565b6120708185612700565b935061208081856020860161286b565b61208981612a61565b840191505092915050565b600061209f826126f5565b6120a98185612711565b93506120b981856020860161286b565b6120c281612a61565b840191505092915050565b60006120d8826126f5565b6120e28185612722565b93506120f281856020860161286b565b80840191505092915050565b600061210b603283612711565b915061211682612a72565b604082019050919050565b600061212e602583612711565b915061213982612ac1565b604082019050919050565b6000612151601c83612711565b915061215c82612b10565b602082019050919050565b6000612174602483612711565b915061217f82612b39565b604082019050919050565b6000612197601983612711565b91506121a282612b88565b602082019050919050565b60006121ba602c83612711565b91506121c582612bb1565b604082019050919050565b60006121dd603883612711565b91506121e882612c00565b604082019050919050565b6000612200602a83612711565b915061220b82612c4f565b604082019050919050565b6000612223602983612711565b915061222e82612c9e565b604082019050919050565b6000612246602e83612711565b915061225182612ced565b604082019050919050565b6000612269602083612711565b915061227482612d3c565b602082019050919050565b600061228c603183612711565b915061229782612d65565b604082019050919050565b60006122af602883612711565b91506122ba82612db4565b604082019050919050565b60006122d2602c83612711565b91506122dd82612e03565b604082019050919050565b60006122f5602f83612711565b915061230082612e52565b604082019050919050565b6000612318602183612711565b915061232382612ea1565b604082019050919050565b600061233b603183612711565b915061234682612ef0565b604082019050919050565b61235a81612852565b82525050565b600061236c82856120cd565b915061237882846120cd565b91508190509392505050565b6000602082019050612399600083018461203d565b92915050565b60006080820190506123b4600083018761203d565b6123c1602083018661203d565b6123ce6040830185612351565b81810360608301526123e0818461205b565b905095945050505050565b6000602082019050612400600083018461204c565b92915050565b600060208201905081810360008301526124208184612094565b905092915050565b60006020820190508181036000830152612441816120fe565b9050919050565b6000602082019050818103600083015261246181612121565b9050919050565b6000602082019050818103600083015261248181612144565b9050919050565b600060208201905081810360008301526124a181612167565b9050919050565b600060208201905081810360008301526124c18161218a565b9050919050565b600060208201905081810360008301526124e1816121ad565b9050919050565b60006020820190508181036000830152612501816121d0565b9050919050565b60006020820190508181036000830152612521816121f3565b9050919050565b6000602082019050818103600083015261254181612216565b9050919050565b6000602082019050818103600083015261256181612239565b9050919050565b600060208201905081810360008301526125818161225c565b9050919050565b600060208201905081810360008301526125a18161227f565b9050919050565b600060208201905081810360008301526125c1816122a2565b9050919050565b600060208201905081810360008301526125e1816122c5565b9050919050565b60006020820190508181036000830152612601816122e8565b9050919050565b600060208201905081810360008301526126218161230b565b9050919050565b600060208201905081810360008301526126418161232e565b9050919050565b600060208201905061265d6000830184612351565b92915050565b600061266d61267e565b905061267982826128fa565b919050565b6000604051905090565b600067ffffffffffffffff8211156126a3576126a2612a32565b5b6126ac82612a61565b9050602081019050919050565b600067ffffffffffffffff8211156126d4576126d3612a32565b5b6126dd82612a61565b9050602081019050919050565b600081519050919050565b600081519050919050565b600082825260208201905092915050565b600082825260208201905092915050565b600081905092915050565b600061273882612852565b915061274383612852565b9250827fffffffffffffffffffffffffffffffffffffffffffffffffffffffffffffffff03821115612778576127776129a5565b5b828201905092915050565b600061278e82612852565b915061279983612852565b9250826127a9576127a86129d4565b5b828204905092915050565b60006127bf82612852565b91506127ca83612852565b9250828210156127dd576127dc6129a5565b5b828203905092915050565b60006127f382612832565b9050919050565b60008115159050919050565b60007fffffffff0000000000000000000000000000000000000000000000000000000082169050919050565b600073ffffffffffffffffffffffffffffffffffffffff82169050919050565b6000819050919050565b82818337600083830152505050565b60005b8381101561288957808201518184015260208101905061286e565b83811115612898576000848401525b50505050565b60006128a982612852565b915060008214156128bd576128bc6129a5565b5b600182039050919050565b600060028204905060018216806128e057607f821691505b602082108114156128f4576128f3612a03565b5b50919050565b61290382612a61565b810181811067ffffffffffffffff8211171561292257612921612a32565b5b80604052505050565b600061293682612852565b91507fffffffffffffffffffffffffffffffffffffffffffffffffffffffffffffffff821415612969576129686129a5565b5b600182019050919050565b600061297f82612852565b915061298a83612852565b92508261299a576129996129d4565b5b828206905092915050565b7f4e487b7100000000000000000000000000000000000000000000000000000000600052601160045260246000fd5b7f4e487b7100000000000000000000000000000000000000000000000000000000600052601260045260246000fd5b7f4e487b7100000000000000000000000000000000000000000000000000000000600052602260045260246000fd5b7f4e487b7100000000000000000000000000000000000000000000000000000000600052604160045260246000fd5b6000601f19601f8301169050919050565b7f4552433732313a207472616e7366657220746f206e6f6e20455243373231526560008201527f63656976657220696d706c656d656e7465720000000000000000000000000000602082015250565b7f4552433732313a207472616e736665722066726f6d20696e636f72726563742060008201527f6f776e6572000000000000000000000000000000000000000000000000000000602082015250565b7f4552433732313a20746f6b656e20616c7265616479206d696e74656400000000600082015250565b7f4552433732313a207472616e7366657220746f20746865207a65726f2061646460008201527f7265737300000000000000000000000000000000000000000000000000000000602082015250565b7f4552433732313a20617070726f766520746f2063616c6c657200000000000000600082015250565b7f4552433732313a206f70657261746f7220717565727920666f72206e6f6e657860008201527f697374656e7420746f6b656e0000000000000000000000000000000000000000602082015250565b7f4552433732313a20617070726f76652063616c6c6572206973206e6f74206f7760008201527f6e6572206e6f7220617070726f76656420666f7220616c6c0000000000000000602082015250565b7f4552433732313a2062616c616e636520717565727920666f7220746865207a6560008201527f726f206164647265737300000000000000000000000000000000000000000000602082015250565b7f4552433732313a206f776e657220717565727920666f72206e6f6e657869737460008201527f656e7420746f6b656e0000000000000000000000000000000000000000000000602082015250565b7f45524337323155524953746f726167653a2055524920736574206f66206e6f6e60008201527f6578697374656e7420746f6b656e000000000000000000000000000000000000602082015250565b7f4552433732313a206d696e7420746f20746865207a65726f2061646472657373600082015250565b7f45524337323155524953746f726167653a2055524920717565727920666f722060008201527f6e6f6e6578697374656e7420746f6b656e000000000000000000000000000000602082015250565b7f4552433732313a2063616c6c6572206973206e6f74206f776e6572206e6f722060008201527f617070726f766564000000000000000000000000000000000000000000000000602082015250565b7f4552433732313a20617070726f76656420717565727920666f72206e6f6e657860008201527f697374656e7420746f6b656e0000000000000000000000000000000000000000602082015250565b7f4552433732314d657461646174613a2055524920717565727920666f72206e6f60008201527f6e6578697374656e7420746f6b656e0000000000000000000000000000000000602082015250565b7f4552433732313a20617070726f76616c20746f2063757272656e74206f776e6560008201527f7200000000000000000000000000000000000000000000000000000000000000602082015250565b7f4552433732313a207472616e736665722063616c6c6572206973206e6f74206f60008201527f776e6572206e6f7220617070726f766564000000000000000000000000000000602082015250565b612f48816127e8565b8114612f5357600080fd5b50565b612f5f816127fa565b8114612f6a57600080fd5b50565b612f7681612806565b8114612f8157600080fd5b50565b612f8d81612852565b8114612f9857600080fd5b5056fea26469706673582212207a557fe5f06daf67dc8952e456bc4fccc80f2ea9b0b57d38bc696f8995b62bcc64736f6c63430008040033",
	"linkReferences": {},
	"deployedLinkReferences": {}
}